:100000000C94DD020C9405030C9405030C94050379
:100010000C9405030C9405030C9405030C94050340
:100020000C9405030C9405030C9405030C94050330
:100030000C9405030C9405030C9405030C94050320
:100040000C94B60C0C9405030C9405030C94050356
:100050000C9405030C9405030C9405030C94050300
:100060000C94000D0C94050300000000003E5B4F53
:100070005B3E3E6B4F6B3E1C3E7C3E1C183C7E3C08
:10008000181C577D571C1C5E7F5E1C00183C180016
:10009000FFE7C3E7FF0018241800FFE7DBE7FF30A6
:1000A000483A060E2629792926407F050507407F14
:1000B00005253F5A3CE73C5A7F3E1C1C08081C1C87
:1000C0003E7F14227F22145F5F005F5F06097F017D
:1000D0007F006689956A606060606094A2FFA29468
:1000E00008047E040810207E201008082A1C080836
:1000F0001C2A08081E101010100C1E0C1E0C303884
:100100003E3830060E3E0E06000000000000005F84
:1001100000000007000700147F147F14242A7F2AA0
:100120001223130864623649562050000807030062
:10013000001C2241000041221C002A1C7F1C2A08AE
:10014000083E080800807030000808080808000011
:1001500060600020100804023E5149453E00427F85
:10016000400072494949462141494D331814127FD4
:100170001027454545393C4A494931412111090774
:100180003649494936464949291E000014000000F5
:1001900040340000000814224114141414140041C7
:1001A00022140802015909063E415D594E7C121184
:1001B000127C7F494949363E414141227F414141BC
:1001C0003E7F494949417F090909013E4141517337
:1001D0007F0808087F00417F41002040413F017FA8
:1001E000081422417F404040407F021C027F7F0470
:1001F00008107F3E4141413E7F090909063E4151B9
:10020000215E7F09192946264949493203017F01A8
:10021000033F4040403F1F2040201F3F4038403FA9
:10022000631408146303047804036159494D4300BF
:100230007F4141410204081020004141417F0402F6
:10024000010204404040404000030708002054548D
:1002500078407F284444383844444428384444286B
:100260007F385454541800087E090218A4A49C78BE
:100270007F0804047800447D40002040403D007F1A
:100280001028440000417F40007C047804787C08FA
:100290000404783844444438FC18242418182424CE
:1002A00018FC7C08040408485454542404043F44B3
:1002B000243C4040207C1C2040201C3C4030403CE2
:1002C00044281028444C9090907C4464544C440042
:1002D00008364100000077000000413608000201A6
:1002E0000204023C2623263C1EA1A161123A404092
:1002F000207A38545455592155557941225454780F
:1003000042215554784020545579400C1E527212A7
:100310003955555559395454545939555454580030
:1003200000457C410002457D420001457C407D1234
:1003300011127DF0282528F07C5455450020545496
:100340007C547C0A097F4932494949323A44444441
:100350003A324A4848303A4141217A3A424020787C
:10036000009DA0A07D3D4242423D3D4040403D3C7D
:1003700024FF2424487E4943662B2FFC2F2BFF09A2
:1003800029F620C0887E0903205454794100004496
:100390007D413048484A32384040227A007A0A0A81
:1003A000727D0D19317D2629292F282629292926F4
:1003B00030484D4020380808080808080808382F39
:1003C00010C8ACBA2F102834FA00007B00000814C3
:1003D0002A142222142A14085500550055AA55AA99
:1003E00055AAFF55FF55FF000000FF00101010FF39
:1003F00000141414FF001010FF00FF1010F010F094
:10040000141414FC001414F700FF0000FF00FF1484
:1004100014F404FC141417101F10101F101F1414D0
:10042000141F00101010F0000000001F101010101A
:100430001F10101010F010000000FF10101010100E
:1004400010101010FF10000000FF140000FF00FF4C
:1004500000001F10170000FC04F4141417101714E8
:1004600014F404F40000FF00F7141414141414140A
:10047000F700F7141414171410101F101F1414147D
:10048000F4141010F010F000001F101F0000001FE7
:1004900014000000FC140000F010F01010FF10FF1A
:1004A000141414FF141010101F00000000F010FFAF
:1004B000FFFFFFFFF0F0F0F0F0FFFFFF0000000093
:1004C00000FFFF0F0F0F0F0F3844443844FC4A4A17
:1004D0004A347E02020606027E027E0263554941CC
:1004E000633844443C04407E201E2006027E020203
:1004F00099A5E7A5991C2A492A1C4C7201724C3017
:100500004A4D4D303048784830BC625A463D3E49ED
:100510004949007E0101017E2A2A2A2A2A44445F91
:10052000444440514A444040444A51400000FF0185
:1005300003E080FF000008086B6B08361236243693
:10054000060F090F060000181800000010100030F8
:1005500040FF0101001F01011E00191D1712003C80
:100560003C3C3C000000000000000000250028008A
:100570002B00000000080002010000030407000037
:1005800000000000000000000000240027002A00F6
:10059000010204081020408001020408102001021A
:1005A00004081020040404040404040402020202E7
:1005B00002020303030303031B0E11241FBECFEF2C
:1005C000D8E0DEBFCDBF13E0A0E0B1E0E8E5F2E2A5
:1005D00002C005900D92AE32B107D9F723E0AEE22A
:1005E000B3E001C01D92A53DB207E1F712E0CDEDE9
:1005F000D2E004C02197FE010E94FA0FCC3DD10742
:10060000C9F70E94790E0C942A110C940000FC0189
:1006100020812EBD0DB407FEFDCF2EB5FC01208339
:100620000895AF92BF92CF92DF92EF92FF920F9315
:100630001F93CF93DF936C017B018B01040F151F78
:10064000EB015E01AE18BF08C017D10759F06991E0
:10065000D601ED91FC910190F081E02DC601099544
:10066000892B79F7C501DF91CF911F910F91FF90F1
:10067000EF90DF90CF90BF90AF90089590E0FC0195
:10068000EE58FA4F2491FC01E057FA4F3491FC01E7
:10069000EC55FA4FE491EE23C9F0222339F02330D0
:1006A00001F1A8F4213019F1223029F1F0E0EE0F28
:1006B000FF1FE859FA4FA591B4918FB7F894EC91C8
:1006C000611126C030953E233C938FBF089527309B
:1006D000A9F02830C9F0243049F7809180008F7D3F
:1006E00003C0809180008F7780938000DFCF84B536
:1006F0008F7784BDDBCF84B58F7DFBCF8091B00039
:100700008F778093B000D2CF8091B0008F7DF9CFEA
:100710003E2BDACFCF93DF9390E0FC01E057FA4F06
:1007200024918C559A4FFC0184918823D1F090E05C
:10073000880F991FFC01EA57FA4FA591B491FC016B
:10074000E859FA4FC591D49161110EC09FB7F89442
:100750008C91E22FE0958E238C932881E223E8830D
:100760009FBFDF91CF9108958FB7F894EC91E22B62
:10077000EC938FBFF6CF8230910538F0880F991F28
:10078000880F991F05970197F1F708959F92AF92EF
:10079000BF92CF92DF92EF92FF920F931F93CF936E
:1007A000DF93EC016B018885998511E0892B09F0B5
:1007B00010E8F601A0808A2D812399249394811159
:1007C000912C2C813D814E815F8160E271EA87E04E
:1007D00090E00E94C40F022FB12CE22EF12C0023D6
:1007E00019F0C7010E94BB038A85877F09F04FC0BB
:1007F0008D858F3F89F09A2D912381E009F480E067
:10080000891551F0EF85F8898F899923D1F190816D
:10081000892B808399249394E989FA898081998D21
:10082000892B8083002319F0C7010E94BB038E85AA
:100830008F3F39F0EB89FC898081988D892309F0FD
:10084000B12AE989FA899081898D809589238083ED
:100850008E858F3F11F0F601B08288859985892BAE
:1008600009F044C0110F1111BACFDF91CF911F9140
:100870000F91FF90EF90DF90CF90BF90AF909F903F
:1008800008959081809589238083912CC5CFE98933
:10089000FA898081998D892B8083002319F0C70103
:1008A0000E94BB038D858F3F49F0EF85F8898F89C2
:1008B0009A2D9123B9F09081892B8083E989FA8957
:1008C0009081898D8095892380838E858F3F09F45F
:1008D000BFCFEB89FC898081988D892309F4B8CF3B
:1008E000B12AB6CF908180958923E7CF1695BBCFEB
:1008F000AF92BF92CF92DF92EF92FF920F931F932E
:10090000CF93DF931F92CDB7DEB78C015B016A01F5
:10091000DC018D919C911197892B39F01296ED9104
:10092000FC91908181819CBD8DBDF80183858F3FB5
:1009300019F060E00E943E037501CA0CDB1CCE1466
:10094000DF04A9F0D7018D917D018983F8018081B1
:100950009181892B29F0CE0101960E940703EFCFE8
:10096000BE016F5F7F4FC8010E94C603E8CFD80168
:100970001B968C918F3F19F061E00E943E0381E04D
:100980000F90DF91CF911F910F91FF90EF90DF902B
:10099000CF90BF90AF9008953FB7F8948091A40393
:1009A0009091A503A091A603B091A70326B5A89B9B
:1009B00005C02F3F19F00196A11DB11D3FBFBA2FF1
:1009C000A92F982F8827BC01CD01620F711D811DB1
:1009D000911D42E0660F771F881F991F4A95D1F736
:1009E00008950F931F93CF93DF931F92CDB7DEB778
:1009F0008C01698360E0FC01868D0E943E0341E02A
:100A000050E0BE016F5F7F4FF801838D948D0E948F
:100A100078040F90DF91CF911F910F910895CF929D
:100A2000DF92EF92FF92CF938091C70387FD1CC0A6
:100A300061E00E948A0360E08091C7030E943E0348
:100A40000E94CC046B017C010E94CC046C197D09CE
:100A50008E099F09683E734081059105A8F361E006
:100A60008091C7030E943E03C091CA03C83008F0BA
:100A7000C7E0C093CA0361E28AEA93E00E94F104EE
:100A80006C2F60618AEA93E00E94F10460E28AEAD6
:100A900093E00E94F104C091C903C7FDCFE7C09362
:100AA000C90361E28AEA93E00E94F1046C2F606856
:100AB0008AEA93E00E94F10460E28AEA93E00E94ED
:100AC000F10460E28AEA93E00E94F1046CE08AEAB1
:100AD00093E0CF91FF90EF90DF90CF900C94F104D2
:100AE000FF920F931F93CF93DF939091CB039923A2
:100AF00039F08091CC038F5F8917E8F58093CC03A0
:100B0000D091CF03D695D695D69584E5D89F800110
:100B100011248091D0038695869586958D1780F156
:100B20006D2F60648AEA93E00E94F104C091CD03C6
:100B3000F090CE036C2F60688AEA93E00E94F10483
:100B400061E08091C8030E943E034F2D50E06C2F5E
:100B500070E0461B570B4F5F5F4F600F711F605077
:100B60007F4F8091C5039091C6030E947804DF5F98
:100B70000C5A1F4FCECF1092CC030E940F05C0CF4E
:100B800060E48AEA93E00E94F10483E58093CD0358
:100B90001092CE038FE28093CF031092D003DF91A7
:100BA000CF911F910F91FF9008951F93CF93DF93E3
:100BB000EC01162F60E20E94F1046CE011116DE06F
:100BC000CE01DF91CF911F910C94F104FC0177FDD0
:100BD00055C080859185681779070CF04FC057FD87
:100BE0004DC082859385481759070CF047C0868908
:100BF000823009F444C0833009F44EC0813031F4AE
:100C00008FE290E0861B970BBA01AC01842FA62FD0
:100C100093A1691708F4962F93A394A19A1708F447
:100C20009A2F94A395A1891708F4982F95A396A1BC
:100C3000981708F4982F96A3CA0157FD0796E3E08A
:100C400095958795EA95E1F7A4E5A89FF001A99FFE
:100C5000F00D1124E60FF71FE050FF4FCA0168E0C6
:100C600070E00E94B00F41E050E001C0440F8A954F
:100C7000EAF78081232BB9F0842B8083089583E5E4
:100C800090E0DC01A61BB70BBD018FE290E0DC0118
:100C9000A41BB50BAD01BACF83E590E0841B950B87
:100CA000AB01BC01B3CF40958423E7CF209155031E
:100CB000260F3327331F21323105ECF420917903BD
:100CC000FC0190E080E0243069F082E00895A0917A
:100CD00055032191AC014B5C5C4FA40FB52FB11DA6
:100CE0002C930196861798F380915503680F6093B3
:100CF000550380E0089581E0089508958FEF9FEFF8
:100D000008958FEF9FEF089580912E0390E09195C5
:100D1000819591090895CF93DF93CB01EA01642F68
:100D20000E945606CE01DF91CF910895CF93DF93B5
:100D30001F92CDB7DEB7698361E0CE0101960E94B4
:100D4000560681E090E00F90DF91CF9108950895CD
:100D5000FC016370668B84819581268137816130C7
:100D600039F0633029F0918780873387228708958F
:100D7000318720879387828708952F923F924F92E1
:100D80005F926F927F928F929F92AF92BF92CF921B
:100D9000DF92EF92FF920F931F93CF93DF93CDB724
:100DA000DEB76A970FB6F894DEBF0FBECDBF9A8F3D
:100DB000898F7A8369834A01D22E18870F8337017E
:100DC000BC2CDC0159962D913C915A972115310587
:100DD00009F015C118968D919C911997681779079C
:100DE0000CF0D7C11A968D919C91481759070CF0B9
:100DF000D0C14C2C512CB6E0CB9E600D711D11243E
:100E00007C876B87161617060CF0C3C1EA2DF0E03D
:100E1000FA87E98793E0EE0FFF1F9A95E1F7F88BC9
:100E2000EF87CF01840F951F181619060CF0B1C17A
:100E3000A98DBA8D58968C91811104C0BFEABD1559
:100E400008F4D394A98DBA8DED91FC911197028489
:100E5000F385E02DCD010995B5E0DB9EC00111249D
:100E6000E981FA81FC83EB83312C212C9C012859E8
:100E70003F4F388F2F8B4A2D50E05E8B4D8BEF8983
:100E8000F88DE20DF31D44919E828D82D12CC12CF0
:100E900069817A81620D731D7A8B698B842F90E052
:100EA0009C8B8B8BE98DFA8DA081B18140FF82C034
:100EB000F1E0BF126FC0AF126DC01C96ED91FC91B6
:100EC0002F813885A4014C0D5D1D69897A89898D32
:100ED0009A8D0995EB89FC89F595E7954E2F5FEF83
:100EE000C51AD50A6D817E818D899E89680F791F0B
:100EF0007E836D8398E0C916D10481F6AFEF2A1A7C
:100F00003A0AEB81FC81E40DF51DFC83EB83F5E0EF
:100F10002F16310409F0B3CF2F81388526153705F8
:100F2000B9F0A98DBA8DED91FC91B1E0BB1257C01B
:100F3000AB1255C069817A816B5F7F4F0088F18960
:100F4000E02D830128E030E0A401898D9A8D099578
:100F5000A98DBA8DED91FC9111970688F789E02D46
:100F6000CD016A960FB6F894DEBF0FBECDBFDF91FC
:100F7000CF911F910F91FF90EF90DF90CF90BF9096
:100F8000AF909F908F907F906F905F904F903F9029
:100F90002F9009941E96ED91FC91EF80F8840985BD
:100FA0001A8592014D815E816B817C81898D9A8D3C
:100FB000099590CF2F8138852615370509F48ACFFA
:100FC00031E0B31207C0A31205C01C96ED91FC914D
:100FD000930178CF1E96ED91FC917301E0CF6B8564
:100FE0007C85641975090684F785E02D73010F85EA
:100FF00018899201A401898D9A8D0995A9CFF901CB
:1010000034969491329745915491D91AB7E0DB9E6A
:10101000400D511D1124F901259134913C8B2B8BEE
:10102000FA0125903490FA013296749031963491F9
:10103000398B329664903196449041E04C1518F00B
:101040004A1508F07FC0662D062C000C770B7C83B8
:101050006B83842D042C000C990B9E838D83A98DAA
:10106000BA8DED91FC9111970284F385E02DCD01AD
:101070000995512CD12CC12CEA2DF0E0FA87E98793
:101080002B2D30E03C872B87A401440D511D47FCDC
:101090005A95588F4F8B69817A81660D711D67FC57
:1010A0007A957E876D877989C71608F051CF2C2DE8
:1010B00030E04D815E81420F531FA985BA854A9F5A
:1010C000C0014B9F900D5A9F900D1124FC01E80D1B
:1010D000F91DF88BEF87852D612C4F89588D420FB4
:1010E000531F5E8B4D8B671408F050C0442443940B
:1010F000480E877041F4C1010196EB89FC89E20D2D
:10110000F31DD4901C01D7FE19C0A98DBA8DED91A5
:10111000FC91662D70E0B1E0BB1219C0AB1217C094
:101120002D853E85620F731F0484F585E02D2F8188
:1011300038854D895E89898D9A8D0995DD0C63947A
:10114000842DD1CF1E821D821C821B8288CF4B81B1
:101150005C81640F751FAB85BC856A9FC0016B9F66
:10116000900D7A9F900D112469817A81680F791F03
:101170000684F785E02DEF80F88409851A859D01A6
:101180004F855889898D9A8D0995D8CF570CC3946E
:101190008ACF6A960FB6F894DEBF0FBECDBFDF913F
:1011A000CF911F910F91FF90EF90DF90CF90BF9064
:1011B000AF909F908F907F906F905F904F903F90F7
:1011C0002F9008958F929F92AF92CF92EF92FF92BD
:1011D0000F931F93CF93DF93EC01262F898D9A8D68
:1011E000009709F051C06A30D1F41D861C868D89A4
:1011F00048E0849F900111248E859F85820F931F64
:101200009F878E8781E090E0DF91CF911F910F91B2
:10121000FF90EF90CF90AF909F908F9008956D309A
:1012200089F3CC88AD888F898823C1F08C859D8512
:1012300036E0C39E800D911D1124488559854817BD
:10124000590764F44E855F851D861C8638E0A39E91
:10125000C0011124840F951F9F878E87EA88FB8821
:10126000088919894E855F856C857D85CE010E9430
:10127000BD062C898C859D8546E0249F800D911D9F
:1012800011249D878C87BECF6A3069F41D861C8629
:10129000FC013896E4912D898E859F85E29F800D13
:1012A000911D1124ADCF6D3009F4ACCFFC01349603
:1012B0003491631708F4A6CF3296E491E61708F448
:1012C000A1CFFC01329685909490462F431B342F7A
:1012D00047E0349F800C911C1124F4013296349124
:1012E0003196E4913323A9F1EE2399F1CC88F401EE
:1012F0003596E491AD884F89442301F10E2E000C00
:10130000FF0BE30FF11DCE9EA001CF9E500D1124C7
:101310006C857D85460F571F68857985641775072D
:101320006CF44E855F851D861C86FC013896E49121
:10133000AE9E400D511D11245F874E87EA88FB88C1
:10134000088919894E855F856C857D85CE010E944F
:10135000BD06F4013496E4912C898C859D85E29F2D
:10136000800D911D11248DCF6F927F928F929F924D
:10137000AF92BF92CF92DF92EF92FF920F931F93A3
:10138000CF93DF93EC016B015A0139014801E881E9
:10139000F9810284F385E02D0995E881F9810288BD
:1013A000F389E02D87019301A501B601CE010995CE
:1013B000A501480D591D41505109E881F981028864
:1013C000F389E02D9301B601CE010995E881F981F9
:1013D0000088F189E02D9401A501B601CE0109959F
:1013E000C60CD71CB60161507109E881F9810088EB
:1013F000F189E02D9401A501CE010995E881F981DB
:101400000688F789E02DCE01DF91CF911F910F91D2
:10141000FF90EF90DF90CF90BF90AF909F908F9014
:101420007F906F9009946F927F928F929F92AF926C
:10143000BF92CF92DF92EF92FF920F931F93CF93C1
:10144000DF935C01EB016A01490138018701DC018E
:10145000ED91FC916217730719F5641675062CF06F
:10146000962D872D3A01C92ED82E960126193709B7
:101470002F5F3F4F048CF58DE02DA301BE01C50108
:101480000995DF91CF911F910F91FF90EF90DF9021
:10149000CF90BF90AF909F908F907F906F90089566
:1014A0004615570591F42617370724F0892D4B016F
:1014B000C22FD82F9E01281939092F5F3F4F068C64
:1014C000F78DE02DA601B401DACF0284F385E02D7B
:1014D0000995D501ED91FC910488F589E02D8301F2
:1014E0009401A601BE01C5010995D501ED91FC91BC
:1014F0000688F789E02DC501DF91CF911F910F91EB
:10150000FF90EF90DF90CF90BF90AF909F908F9023
:101510007F906F900994EF92FF920F931F93DC01DD
:101520001A960D911C911B9718962D913C91199725
:10153000ED91FC9100A0F1A1E02D7B0150E040E095
:1015400070E060E009951F910F91FF90EF90089572
:101550004F925F926F927F928F929F92AF92BF92C3
:10156000CF92DF92EF92FF920F931F93CF93DF936F
:101570006C012B015A0139014801DC01ED91FC910C
:101580000284F385E02D0995E201640C751CD601F7
:10159000ED91FC91C615D7055CF40088F189E02D2A
:1015A00087019401A501BE01C60109952196EFCFDF
:1015B0000688F789E02DC601DF91CF911F910F9129
:1015C000FF90EF90DF90CF90BF90AF909F908F9063
:1015D0007F906F905F904F9009948F929F92AF92FF
:1015E000BF92CF92DF92EF92FF920F931F93CF9310
:1015F000DF93EC015B014A016901E881F981028412
:10160000F385E02D099595012C0D3D1D21503109E3
:10161000E881F9810488F589E02D78018401A4012D
:10162000B501CE010995E881F9810688F789E02D99
:10163000CE01DF91CF911F910F91FF90EF90DF903E
:10164000CF90BF90AF909F908F9009948F929F9270
:10165000AF92BF92CF92DF92EF92FF920F931F93C0
:10166000CF93DF93EC015B014A0169017801E881C6
:10167000F9810284F385E02D0995C80CD91C8601F7
:1016800001501109E881F9810488F589E02D95015F
:10169000A401B501CE010995E881F9810688F78991
:1016A000E02DCE01DF91CF911F910F91FF90EF9030
:1016B000DF90CF90BF90AF909F908F900994EF9262
:1016C000FF920F931F93DC01ED91FC9100A0F1A11B
:1016D000E02D09951F910F91FF90EF9008950F93C2
:1016E0001F93DC01ED91FC91068CF78DE02D09959F
:1016F0001F910F9108950F931F93DC01ED91FC91C1
:10170000048CF58DE02D09951F910F910895DC0152
:10171000ED91FC910084F185E02D09942F923F9288
:101720004F925F926F927F928F929F92AF92BF92F1
:10173000CF92DF92EF92FF920F931F93CF93DF939D
:1017400000D000D000D0CDB7DEB73C016A013E83A7
:101750002D83FC82EB825801A41AB50AB7FE03C0A0
:10176000B194A194B1088D809E80861A970A97FE45
:1017700003C09194819491088A149B045CF0902F8B
:10178000812F0D811E819D838E839C2D8D2D6B015C
:10179000692F782F0C151D055CF09D818E817E834D
:1017A0006D83692F782F902F812F8601C92ED82E17
:1017B0001601201A310A2B012D813E81421A530A4B
:1017C00057FE03C0519441945108710137FE03C084
:1017D0003FEFE31AF30AF594E7948D819E81861713
:1017E00097075CF5A1E0B0E0BA83A983C016D106E3
:1017F0004CF1D301ED91FC910484F585E02D2B8112
:101800003C81A8016D817E818A149B041CF04D816E
:101810005E81B801C3010995E418F508F7FE0AC016
:101820002D813E8189819A81280F391F3E832D8326
:10183000E20CF31C0F5F1F4FD9CF2FEF3FEF3A831E
:101840002983D4CF26960FB6F894DEBF0FBECDBF46
:10185000DF91CF911F910F91FF90EF90DF90CF908C
:10186000BF90AF909F908F907F906F905F904F90C0
:101870003F902F900895089590E080E008950E9491
:1018800025111F93CF93DF9385ED8093BC0080914A
:10189000310390913203A0913303B0913403079642
:1018A000A11DB11D23E0B695A795979587952A951B
:1018B000D1F72091BC0024FD03C01092790352C0DF
:1018C000409131035091320360913303709134039E
:1018D000452B462B472B69F30097A105B10541F035
:1018E00025E32A95F1F700000197A109B109E1CF9D
:1018F00080913003C1E0C0932F03882399F1D091E8
:10190000B8001091BA008091BC008A7B8093BC0023
:1019100060E082E10E943E0360E083E10E943E03BA
:1019200010927903C0937B0310927A0361E082E105
:101930000E943E0361E083E10E943E038091B90072
:101940008E7F8093B9008091B9008D7F8093B9001C
:1019500088E48093B80085E48093BC001093BA00BB
:10196000D093B800DF91CF911F9108951F920F92ED
:101970000FB60F9211242F933F938F939F93AF93A2
:10198000BF938091A0039091A103A091A203B09175
:10199000A30330919F0323E0230F2D3758F50196C1
:1019A000A11DB11D20939F038093A0039093A103D9
:1019B000A093A203B093A3038091A4039091A503E5
:1019C000A091A603B091A7030196A11DB11D80931C
:1019D000A4039093A503A093A603B093A703BF917C
:1019E000AF919F918F913F912F910F900FBE0F90CC
:1019F0001F90189526E8230F0296A11DB11DD2CF86
:101A00001F920F920FB60F9211242F933F934F9373
:101A10005F936F937F938F939F93AF93BF93EF9356
:101A2000FF938091B900887F803609F44AC0F0F5B1
:101A3000883209F4A5C018F5803109F499C0B8F4CA
:101A4000882309F4F5C0883009F492C0FF91EF9122
:101A5000BF91AF919F918F917F916F915F914F91C6
:101A60003F912F910F900FBE0F901F9018958831C6
:101A700009F486C0803251F78093780314C0803413
:101A800009F49BC040F48033B9F38833F9F68093AE
:101A9000780385ECAEC0803509F483C0883509F43D
:101AA00094C0883499F60E94410CD0CF883909F44B
:101AB0008AC038F5883729F050F4883611F080371D
:101AC00029F683E0809379031092770355C0883814
:101AD00009F479C0803919F0803809F0B7CF8091C6
:101AE0007703803208F06FC0E091770381E08E0FBA
:101AF000809377038091BB00F0E0E95AFC4F80832C
:101B00003BC0803B39F0D0F4803A09F477C0883A82
:101B100009F09CCF84E080937903109256031092D1
:101B20005503F0E0E0E009958091550381110FC065
:101B300081E0809355031092350309C0803C09F47D
:101B4000A8CF883C09F4A5CF883B09F07FCFE0916E
:101B5000560381E08E0F80935603F0E0EB5CFC4F60
:101B600080818093BB00909156038091550329C0DA
:101B700080919E038093BB0085EC8093BC0066CF70
:101B800090919D0380919C03981758F5E0919D03D7
:101B900081E08E0F80939D03F0E0E458FC4F80813C
:101BA000E9CFE0919D0381E08E0F80939D038091AA
:101BB000BB00F0E0E458FC4F808390919D0380913E
:101BC0009C039817C8F285E8D8CFE0919D0381E087
:101BD0008E0F80939D038091BB00F0E0E458FC4F92
:101BE000808380917B0381115ECF81E080937A03B3
:101BF00084EA8093BC001092790328CF85EC80930F
:101C0000BC001092790380917703803230F4E09128
:101C10007703F0E0E95AFC4F10826091770370E09F
:101C200087E593E0F0E0E0E00995109277030ECFAE
:101C30001092780338CF0F931F93CF93DF93CAEAA4
:101C4000D3E01B821A8224E530E03D832C8380E3BD
:101C500090E09F838E83398728879B878A871E8A97
:101C60001D861C861F861E8681E08D8B8C8B2FEF38
:101C70003FEF3B8B2A8B398B288B8F8B188E1A8EDC
:101C8000198E82E093E0998388838CE190E00E9432
:101C900000108C0184E0F80183878FEF86878587A9
:101CA000848789EA93E091838083138E82E090E0B9
:101CB0000E94001020E5FC0120831182F80193832B
:101CC000828380E099E0ADE3B0E084839583A683CE
:101CD000B78381E090E09187808712861C8F0B8FFD
:101CE00085E08E8F83E08D8FDF91CF911F910F91D3
:101CF0000895789484B5826084BD84B5816084BD84
:101D000085B5826085BD85B5816085BD80916E0099
:101D1000816080936E0010928100809181008260CA
:101D20008093810080918100816080938100809107
:101D300080008160809380008091B10084608093F6
:101D4000B1008091B00081608093B00080917A00F2
:101D5000846080937A0080917A00826080937A0018
:101D600080917A00816080937A0080917A00806807
:101D700080937A001092C100E0E0F1E088EF91E0FA
:101D8000DF019C011D9221503040E1F71092CD03FC
:101D90008091CE03833508F483E58093CE031092BF
:101DA000CF038091D0038F3208F48FE28093D00369
:101DB0001092B7031092B6031092B9031092B803B1
:101DC000C091C503D091C6038B858F3F39F061E088
:101DD0000E948A0361E08B850E943E03888199817D
:101DE000892B09F49FC01FB7F8948091A803811133
:101DF00027C0EEEAF5E08491EAE9F5E09491E82F56
:101E0000F0E0EE0FFF1FEA57FA4FA591B491EC9165
:101E1000E92321F461E08AE00E943E0361E08AE068
:101E20000E948A038CB580618CBD8CB580648CBDAA
:101E300061E08DE00E948A0361E08BE00E948A03EA
:101E40008091A8038F5F8093A8031FBF81E08B8FD1
:101E500061E08091C8030E948A038091C70387FDD7
:101E600003C061E00E948A0384E08093CA0388E291
:101E70008093C9031092CB031092CC030E940F05EC
:101E80001092CD038091CE03833508F483E58093CF
:101E9000CE031092CF038091D0038F3208F48FE2EB
:101EA0008093D0030E94700581E08093BE038093ED
:101EB000BF0381E090E09093BD038093BC039093B7
:101EC000BB038093BA03C4E0D0E0D093B703C093C0
:101ED000B60386E090E09093B9038093B80350E096
:101EE00040E06DE273E08AEA93E00E941103D09330
:101EF000B703C093B60382E190E09093B903809357
:101F0000B80343E050E06AE273E08AEA93E00E949B
:101F100011030E947005C0E0D0E02097F1F30E9409
:101F20000000FBCF61E08C850E948A038A858B7F4D
:101F300060E009F061E08C850E943E038D858F3F53
:101F400039F061E00E948A0361E08D850E943E03C2
:101F50008E858F3F09F47ACF60E00E948A0376CFA6
:101F600097FB072E16F4009407D077FD09D00E9446
:101F7000E60F07FC05D03EF4909581959F4F08959C
:101F8000709561957F4F0895A1E21A2EAA1BBB1B85
:101F9000FD010DC0AA1FBB1FEE1FFF1FA217B30735
:101FA000E407F50720F0A21BB30BE40BF50B661F4B
:101FB000771F881F991F1A9469F76095709580950F
:101FC00090959B01AC01BD01CF010895AA1BBB1BDD
:101FD00051E107C0AA1FBB1FA617B70710F0A61B29
:101FE000B70B881F991F5A95A9F780959095BC014A
:101FF000CD010895EE0FFF1F0590F491E02D099497
:102000000F931F93CF93DF938230910510F482E0FA
:1020100090E0E091D303F091D40330E020E0B0E011
:10202000A0E0309799F42115310509F44AC0281B26
:10203000390B24303105D8F58A819B8161157105F2
:1020400089F1FB0193838283FE0111C0408151819C
:102050000281138148175907E0F04817590799F48E
:10206000109761F012960C93129713961C93329668
:10207000CF01DF91CF911F910F9108950093D3036A
:102080001093D403F4CF2115310551F042175307B3
:1020900038F0A901DB019A01BD01DF01F801C1CFD0
:1020A000EF01F9CF9093D4038093D303CDCFFE01FA
:1020B000E20FF31F819391932250310939832883D2
:1020C000D7CF2091D1033091D203232B41F420911B
:1020D000FA023091FB023093D2032093D103209176
:1020E000F8023091F9022115310541F42DB73EB7C0
:1020F0004091FC025091FD02241B350BE091D1036D
:10210000F091D203E217F307A0F42E1B3F0B281720
:10211000390778F0AC014E5F5F4F2417350748F060
:102120004E0F5F1F5093D2034093D103819391933D
:102130009FCFF0E0E0E09CCFCF93DF930097E9F0F2
:10214000FC01329713821282A091D303B091D40381
:10215000ED0130E020E01097A1F420813181820F61
:10216000931F2091D1033091D2032817390709F02A
:1021700061C0F093D203E093D103DF91CF91089532
:10218000EA01CE17DF07E8F54A815B819E01411520
:102190005105B1F7E901FB83EA8349915991C40FD5
:1021A000D51FEC17FD0761F4808191810296840FA1
:1021B000951FE90199838883828193819B838A8318
:1021C000F0E0E0E012968D919C9113970097B9F59D
:1021D0002D913C911197CD010296820F931F209172
:1021E000D1033091D2032817390739F6309751F5CA
:1021F0001092D4031092D303B093D203A093D103CF
:10220000BCCFD383C28340815181840F951FC817EF
:10221000D90761F44E5F5F4F88819981480F591F3C
:10222000518340838A819B81938382832115310569
:1022300009F0B0CFF093D403E093D3039ECFFD0118
:10224000DC01C0CF13821282D7CF81E090E0F894F6
:082250000C942A11F894FFCF51
:102258000000000000000000000000000000000076
:102268000000000000000000000000000000000066
:10227800000000000000C0E0F0F8FCFCFEFFFCE0FD
:102288000000000000000000000000000000000046
:102298000000000000000000000000000000000036
:1022A8000000000000000000000000000000000026
:1022B8000000000000F8F8F8F8F8F8F8F8F8F8F86E
:1022C800F8F0F0E0E0C080C0FCFFFFFFFF7F3F7F39
:1022D800FFFFFFFFFF0000000000000000000000FB
:1022E80000000000000000000000000000000000E6
:1022F80000000000000000000000000000000000D6
:10230800000000000000000000000F1F3F7FFFFFDB
:10231800FFFFFFFFFFFFE7C7C7878F9F9FFFFFFFF5
:10232800C1C0E0FCFFFFFFFFFFFCFCFCFCFEFEFE63
:10233800FCFCF8F8F0E0C0C000000000000000005D
:102348000000000000000000000000000000000085
:102358000000000000000000000000000000000075
:102368000080C0E0F1FBFFFFFFFFFF7F1F0F0F871B
:10237800E7FFFFFF1F1F3FF9F8F8F8F8F8F8FDFF2F
:10238800FFFFFFFFFFFFFFFF7F3F0F070100000078
:102398000000000000000000000000000000000035
:1023A8000000000000000000000000000000000025
:1023B800000000F0FEFFFFFFFFFFFFFFFFFFFFFE33
:1023C8007E3F3F0F1FFFFFFFFCF0E0F1FFFFFFFF25
:1023D800FFFCF00101010101010101000000000002
:1023E80000000000000000000000000000000000E5
:1023F80000000000000000000000000000000000D5
:1024080000000000000000030303030303030301AB
:1024180001010100000000000000030F1F3F7F7F43
:10242800FFFFFFFF7F7F1F03000000000000000088
:102438000000000000000000000000000000000094
:1024480000000000000000000000D503800000002C
:102458000000E20811033C0C3B0CE6057D06870BE7
:102468005F0B7B0B6F0B8E0B7D06A806D505260B25
:0E247800ED0AA80A8B0A130AB40968656A0007
:00000001FF
